{
  "transactions": [
    {
      "hash": "0xc8e8627d3e8fc43b43a216a2374ab39ae386394a74524d7ad0ff73cbaa2e46a4",
      "transactionType": "CALL",
      "contractName": null,
      "contractAddress": "0x07ece77248d4e3f295fdfaec1c86e257098a434a",
      "function": "setCDOPoolFactory(address)",
      "arguments": [
        "0xc616918154D7a9dB5D78480d1d53820d4423b298"
      ],
      "transaction": {
        "from": "0x7fbbe68068a3aa7e479a1e51e792f4c2073b018f",
        "to": "0x07ece77248d4e3f295fdfaec1c86e257098a434a",
        "gas": "0x9122301",
        "value": "0x0",
        "input": "0x154466c8000000000000000000000000c616918154d7a9db5d78480d1d53820d4423b298",
        "nonce": "0x4c",
        "chainId": "0x138b"
      },
      "additionalContracts": [],
      "isFixedGasLimit": false
    },
    {
      "hash": "0x16683041b50996ad5fd24dd0a92ded35542ffb00ee11b3f625cd6f990ba5760c",
      "transactionType": "CALL",
      "contractName": null,
      "contractAddress": "0x07ece77248d4e3f295fdfaec1c86e257098a434a",
      "function": "setDefaultPool(uint256)",
      "arguments": [
        "3"
      ],
      "transaction": {
        "from": "0x7fbbe68068a3aa7e479a1e51e792f4c2073b018f",
        "to": "0x07ece77248d4e3f295fdfaec1c86e257098a434a",
        "gas": "0xab1cd3f",
        "value": "0x0",
        "input": "0x8dda41a90000000000000000000000000000000000000000000000000000000000000003",
        "nonce": "0x4d",
        "chainId": "0x138b"
      },
      "additionalContracts": [],
      "isFixedGasLimit": false
    },
    {
      "hash": "0x74967f6f4fa093895e2c84842274fe86980f7cb3a32fd6e978b0007aaf120ff9",
      "transactionType": "CALL",
      "contractName": null,
      "contractAddress": "0xc616918154d7a9db5d78480d1d53820d4423b298",
      "function": "authorizeMatcherOnPool(address,address,bool)",
      "arguments": [
        "0x2b2E21596A22f6Ab273E41F4BB28Dcc1D0be6D85",
        "0x07ecE77248D4E3f295fdFaeC1C86e257098A434a",
        "true"
      ],
      "transaction": {
        "from": "0x7fbbe68068a3aa7e479a1e51e792f4c2073b018f",
        "to": "0xc616918154d7a9db5d78480d1d53820d4423b298",
        "gas": "0xb095fe6",
        "value": "0x0",
        "input": "0x037edb7e0000000000000000000000002b2e21596a22f6ab273e41f4bb28dcc1d0be6d8500000000000000000000000007ece77248d4e3f295fdfaec1c86e257098a434a0000000000000000000000000000000000000000000000000000000000000001",
        "nonce": "0x4e",
        "chainId": "0x138b"
      },
      "additionalContracts": [],
      "isFixedGasLimit": false
    },
    {
      "hash": "0xd9f69e90fbc228189214795fb11a142c57764aefad6e6cd39fb199a5e6c4693e",
      "transactionType": "CALL",
      "contractName": null,
      "contractAddress": "0xc616918154d7a9db5d78480d1d53820d4423b298",
      "function": "authorizeMatcherOnPool(address,address,bool)",
      "arguments": [
        "0xd0B0aF8488D7000c6658a0E7A50566dAa6B6E631",
        "0x07ecE77248D4E3f295fdFaeC1C86e257098A434a",
        "true"
      ],
      "transaction": {
        "from": "0x7fbbe68068a3aa7e479a1e51e792f4c2073b018f",
        "to": "0xc616918154d7a9db5d78480d1d53820d4423b298",
        "gas": "0xb07f34f",
        "value": "0x0",
        "input": "0x037edb7e000000000000000000000000d0b0af8488d7000c6658a0e7a50566daa6b6e63100000000000000000000000007ece77248d4e3f295fdfaec1c86e257098a434a0000000000000000000000000000000000000000000000000000000000000001",
        "nonce": "0x4f",
        "chainId": "0x138b"
      },
      "additionalContracts": [],
      "isFixedGasLimit": false
    },
    {
      "hash": "0x477b852eb79f9ea70189ef9075712ea6645112b6acd873934158e5da23aad31a",
      "transactionType": "CALL",
      "contractName": null,
      "contractAddress": "0xc616918154d7a9db5d78480d1d53820d4423b298",
      "function": "authorizeMatcherOnPool(address,address,bool)",
      "arguments": [
        "0xb8886E5638d17Fe6161976FD4Ca27d2DaAC9029f",
        "0x07ecE77248D4E3f295fdFaeC1C86e257098A434a",
        "true"
      ],
      "transaction": {
        "from": "0x7fbbe68068a3aa7e479a1e51e792f4c2073b018f",
        "to": "0xc616918154d7a9db5d78480d1d53820d4423b298",
        "gas": "0xb095fe6",
        "value": "0x0",
        "input": "0x037edb7e000000000000000000000000b8886e5638d17fe6161976fd4ca27d2daac9029f00000000000000000000000007ece77248d4e3f295fdfaec1c86e257098a434a0000000000000000000000000000000000000000000000000000000000000001",
        "nonce": "0x50",
        "chainId": "0x138b"
      },
      "additionalContracts": [],
      "isFixedGasLimit": false
    },
    {
      "hash": "0x02483cdc8c170da30cc115bdbe591613d2b751bcad37433650e564d368769fd9",
      "transactionType": "CALL",
      "contractName": null,
      "contractAddress": "0xc616918154d7a9db5d78480d1d53820d4423b298",
      "function": "authorizeMatcherOnPool(address,address,bool)",
      "arguments": [
        "0x8Ea7a72e5deF4323e6DF86c668F88e4aBc5E2f92",
        "0x07ecE77248D4E3f295fdFaeC1C86e257098A434a",
        "true"
      ],
      "transaction": {
        "from": "0x7fbbe68068a3aa7e479a1e51e792f4c2073b018f",
        "to": "0xc616918154d7a9db5d78480d1d53820d4423b298",
        "gas": "0xb095fe6",
        "value": "0x0",
        "input": "0x037edb7e0000000000000000000000008ea7a72e5def4323e6df86c668f88e4abc5e2f9200000000000000000000000007ece77248d4e3f295fdfaec1c86e257098a434a0000000000000000000000000000000000000000000000000000000000000001",
        "nonce": "0x51",
        "chainId": "0x138b"
      },
      "additionalContracts": [],
      "isFixedGasLimit": false
    }
  ],
  "receipts": [
    {
      "status": "0x1",
      "cumulativeGasUsed": "0x54ef74e",
      "logs": [],
      "logsBloom": "0x00000000000000000000000000000000000000000000000000000000000000000000000000000000000000000000000000000000000000000000000000000000000000000000000000000000000000000000000000000000000000000000000000000000000000000000000000000000000000000000000000000000000000000000000000000000000000000000000000000000000000000000000000000000000000000000000000000000000000000000000000000000000000000000000000000000000000000000000000000000000000000000000000000000000000000000000000000000000000000000000000000000000000000000000000000000",
      "type": "0x0",
      "transactionHash": "0xc8e8627d3e8fc43b43a216a2374ab39ae386394a74524d7ad0ff73cbaa2e46a4",
      "transactionIndex": "0x1",
      "blockHash": "0x146b16072ad4cb6d220a7cc7c64ef56159055dab8dbdd0c54bd55e75f636286d",
      "blockNumber": "0x1fce98a",
      "gasUsed": "0x54e4031",
      "effectiveGasPrice": "0x132b3a0",
      "from": "0x7fbbe68068a3aa7e479a1e51e792f4c2073b018f",
      "to": "0x07ece77248d4e3f295fdfaec1c86e257098a434a",
      "contractAddress": null,
      "l1Fee": "0x4035b24866e0",
      "l1FeeScalar": "0.01",
      "l1GasPrice": "0x37ea9e24",
      "l1GasUsed": "0x8fc",
      "tokenRatio": "0xcc8"
    },
    {
      "status": "0x1",
      "cumulativeGasUsed": "0x6d31240",
      "logs": [],
      "logsBloom": "0x00000000000000000000000000000000000000000000000000000000000000000000000000000000000000000000000000000000000000000000000000000000000000000000000000000000000000000000000000000000000000000000000000000000000000000000000000000000000000000000000000000000000000000000000000000000000000000000000000000000000000000000000000000000000000000000000000000000000000000000000000000000000000000000000000000000000000000000000000000000000000000000000000000000000000000000000000000000000000000000000000000000000000000000000000000000",
      "type": "0x0",
      "transactionHash": "0x16683041b50996ad5fd24dd0a92ded35542ffb00ee11b3f625cd6f990ba5760c",
      "transactionIndex": "0x1",
      "blockHash": "0x93b59f3cfa3ec7bff431fd39ab54adb4e506379c7d80206255217124de46b53d",
      "blockNumber": "0x1fce98e",
      "gasUsed": "0x6d25b2f",
      "effectiveGasPrice": "0x132b3a0",
      "from": "0x7fbbe68068a3aa7e479a1e51e792f4c2073b018f",
      "to": "0x07ece77248d4e3f295fdfaec1c86e257098a434a",
      "contractAddress": null,
      "l1Fee": "0x41127d9b9592",
      "l1FeeScalar": "0.01",
      "l1GasPrice": "0x3ee7367f",
      "l1GasUsed": "0x818",
      "tokenRatio": "0xcc8"
    },
    {
      "status": "0x1",
      "cumulativeGasUsed": "0x6fee420",
      "logs": [
        {
          "address": "0x2b2e21596a22f6ab273e41f4bb28dcc1d0be6d85",
          "topics": [
            "0x2bb4132ab6ba22b8c1b13d838146bc1aadc7284d37740617db5bbc0f7235fdb7",
            "0x00000000000000000000000007ece77248d4e3f295fdfaec1c86e257098a434a"
          ],
          "data": "0x00000000000000000000000000000000000000000000000000000000000000010000000000000000000000000000000000000000000000000000000069655603",
          "blockHash": "0xca1d5d28f4d953f1611dc9703fbf54f3f1c921cd3067a22c56decdde7bcde908",
          "blockNumber": "0x1fce991",
          "blockTimestamp": "0x69655603",
          "transactionHash": "0x74967f6f4fa093895e2c84842274fe86980f7cb3a32fd6e978b0007aaf120ff9",
          "transactionIndex": "0x1",
          "logIndex": "0x0",
          "removed": false
        }
      ],
      "logsBloom": "0x00000000000000000000000000000000000000000000000002000000000000000000000000000000000000000000000000000000000000000000000000000000000000000000000004000000000000000000000000000000200000000000000000000000000000000000000000000100000004000000000000000000000000000000000000000000040000000000000000000000000000000000000000000000000000040000000000000000000000000000000000000000000000000000000000000000000000000000000040000000000000000000000000000000000000000200000000000000000000000000000000000000000000000000000000000000",
      "type": "0x0",
      "transactionHash": "0x74967f6f4fa093895e2c84842274fe86980f7cb3a32fd6e978b0007aaf120ff9",
      "transactionIndex": "0x1",
      "blockHash": "0xca1d5d28f4d953f1611dc9703fbf54f3f1c921cd3067a22c56decdde7bcde908",
      "blockNumber": "0x1fce991",
      "gasUsed": "0x6fe2d0f",
      "effectiveGasPrice": "0x132b3a0",
      "from": "0x7fbbe68068a3aa7e479a1e51e792f4c2073b018f",
      "to": "0xc616918154d7a9db5d78480d1d53820d4423b298",
      "contractAddress": null,
      "l1Fee": "0x58b06de9cbdb",
      "l1FeeScalar": "0.01",
      "l1GasPrice": "0x3ee7367f",
      "l1GasUsed": "0xb08",
      "tokenRatio": "0xcc8"
    },
    {
      "status": "0x1",
      "cumulativeGasUsed": "0x210aa9b9",
      "logs": [
        {
          "address": "0xd0b0af8488d7000c6658a0e7a50566daa6b6e631",
          "topics": [
            "0x2bb4132ab6ba22b8c1b13d838146bc1aadc7284d37740617db5bbc0f7235fdb7",
            "0x00000000000000000000000007ece77248d4e3f295fdfaec1c86e257098a434a"
          ],
          "data": "0x00000000000000000000000000000000000000000000000000000000000000010000000000000000000000000000000000000000000000000000000069655609",
          "blockHash": "0x8014b156fa7cc2b9f5c3208d29b8169ad4f9d252cdc49879c113e66f0547f9f1",
          "blockNumber": "0x1fce994",
          "blockTimestamp": "0x69655609",
          "transactionHash": "0xd9f69e90fbc228189214795fb11a142c57764aefad6e6cd39fb199a5e6c4693e",
          "transactionIndex": "0x2",
          "logIndex": "0x2",
          "removed": false
        }
      ],
      "logsBloom": "0x00000000000000000000000000000000000000000000000000000000000000000000000000000000000000000000000020000000000000000000000000000000000000000000000404000000000000000000000000000000200000000000000000000000000000000000000000000100000000000000000000000000000000000000000000000000040000000000000000000000000000000000000000000000000000000000000200000000000000000000000000000000000000000000000000000000000000000000000040000000000000000000000000000000000000000200000000000000000000000000000000000000000000000000000000000000",
      "type": "0x0",
      "transactionHash": "0xd9f69e90fbc228189214795fb11a142c57764aefad6e6cd39fb199a5e6c4693e",
      "transactionIndex": "0x2",
      "blockHash": "0x8014b156fa7cc2b9f5c3208d29b8169ad4f9d252cdc49879c113e66f0547f9f1",
      "blockNumber": "0x1fce994",
      "gasUsed": "0x6f73b0d",
      "effectiveGasPrice": "0x132b3a0",
      "from": "0x7fbbe68068a3aa7e479a1e51e792f4c2073b018f",
      "to": "0xc616918154d7a9db5d78480d1d53820d4423b298",
      "contractAddress": null,
      "l1Fee": "0x51175beca413",
      "l1FeeScalar": "0.01",
      "l1GasPrice": "0x39c27ee4",
      "l1GasUsed": "0xafc",
      "tokenRatio": "0xcc8"
    },
    {
      "status": "0x1",
      "cumulativeGasUsed": "0x7011eb3",
      "logs": [
        {
          "address": "0xb8886e5638d17fe6161976fd4ca27d2daac9029f",
          "topics": [
            "0x2bb4132ab6ba22b8c1b13d838146bc1aadc7284d37740617db5bbc0f7235fdb7",
            "0x00000000000000000000000007ece77248d4e3f295fdfaec1c86e257098a434a"
          ],
          "data": "0x00000000000000000000000000000000000000000000000000000000000000010000000000000000000000000000000000000000000000000000000069655611",
          "blockHash": "0x53397d2434c975f0f4fa78362662f18b797adc8f4aee385fbb15b81d493231b9",
          "blockNumber": "0x1fce998",
          "blockTimestamp": "0x69655611",
          "transactionHash": "0x477b852eb79f9ea70189ef9075712ea6645112b6acd873934158e5da23aad31a",
          "transactionIndex": "0x1",
          "logIndex": "0x0",
          "removed": false
        }
      ],
      "logsBloom": "0x00000000000000000000000000000000000000000000000000000000000000000000000000000000000000000000000000000000000000000000000000000000000000000000000004000000000000000000000000000000200000000000000000000000000000000000000000080140000000000000000000000000000000000000000000000000040000000000000000000000000000000000000000000000000000000000000000000000000000000000000000000000000000000000000000000000000000000000000040000000000000004000000000000000000000000200000000000000000000000000000000000000000000000000000000000000",
      "type": "0x0",
      "transactionHash": "0x477b852eb79f9ea70189ef9075712ea6645112b6acd873934158e5da23aad31a",
      "transactionIndex": "0x1",
      "blockHash": "0x53397d2434c975f0f4fa78362662f18b797adc8f4aee385fbb15b81d493231b9",
      "blockNumber": "0x1fce998",
      "gasUsed": "0x70046d2",
      "effectiveGasPrice": "0x132b3a0",
      "from": "0x7fbbe68068a3aa7e479a1e51e792f4c2073b018f",
      "to": "0xc616918154d7a9db5d78480d1d53820d4423b298",
      "contractAddress": null,
      "l1Fee": "0x5b3913dc8a2e",
      "l1FeeScalar": "0.01",
      "l1GasPrice": "0x40f9f3b0",
      "l1GasUsed": "0xafc",
      "tokenRatio": "0xcc8"
    },
    {
      "status": "0x1",
      "cumulativeGasUsed": "0x7015205",
      "logs": [
        {
          "address": "0x8ea7a72e5def4323e6df86c668f88e4abc5e2f92",
          "topics": [
            "0x2bb4132ab6ba22b8c1b13d838146bc1aadc7284d37740617db5bbc0f7235fdb7",
            "0x00000000000000000000000007ece77248d4e3f295fdfaec1c86e257098a434a"
          ],
          "data": "0x00000000000000000000000000000000000000000000000000000000000000010000000000000000000000000000000000000000000000000000000069655619",
          "blockHash": "0xfd3fbe4dc2cdb1f4e3676ea676aa71fe00a7574188ea9c2e84f8bcd47ccc9786",
          "blockNumber": "0x1fce99c",
          "blockTimestamp": "0x69655619",
          "transactionHash": "0x02483cdc8c170da30cc115bdbe591613d2b751bcad37433650e564d368769fd9",
          "transactionIndex": "0x1",
          "logIndex": "0x0",
          "removed": false
        }
      ],
      "logsBloom": "0x00000000000000000000000000000000000000000000000000000000000000000000000000000000000000000000000000000000000000000000000000000400000000000000000004000000000000000000000002000000200000000000000000000000000000000000000000000100000000000000000000000000000000000000000000000000040000000000000000000000000000000000000000000000000000000000000000000000000000000000000000000000000000000000000000000000000000000000000040000000000000000000000000000000000000000200010000000000000000000000000000000000000000000000000000000000",
      "type": "0x0",
      "transactionHash": "0x02483cdc8c170da30cc115bdbe591613d2b751bcad37433650e564d368769fd9",
      "transactionIndex": "0x1",
      "blockHash": "0xfd3fbe4dc2cdb1f4e3676ea676aa71fe00a7574188ea9c2e84f8bcd47ccc9786",
      "blockNumber": "0x1fce99c",
      "gasUsed": "0x7009ae8",
      "effectiveGasPrice": "0x132b3a0",
      "from": "0x7fbbe68068a3aa7e479a1e51e792f4c2073b018f",
      "to": "0xc616918154d7a9db5d78480d1d53820d4423b298",
      "contractAddress": null,
      "l1Fee": "0x5b9cbc2f6a5c",
      "l1FeeScalar": "0.01",
      "l1GasPrice": "0x40f9f3b0",
      "l1GasUsed": "0xb08",
      "tokenRatio": "0xcc8"
    }
  ],
  "libraries": [],
  "pending": [],
  "returns": {},
  "timestamp": 1768248859173,
  "chain": 5003,
  "commit": "ed70ae6"
}