{
  "transactions": [
    {
      "hash": "0xe3e52519018c495c8ec095e58eee1c8721c102976666395f3ecd61f2806d8394",
      "transactionType": "CALL",
      "contractName": null,
      "contractAddress": "0x76b27dfb0408baa19b3f41469b123c5bbfd56047",
      "function": "setYieldVault(address)",
      "arguments": [
        "0x12ccF0F4A22454d53aBdA56a796a08e93E947256"
      ],
      "transaction": {
        "from": "0x7fbbe68068a3aa7e479a1e51e792f4c2073b018f",
        "to": "0x76b27dfb0408baa19b3f41469b123c5bbfd56047",
        "gas": "0xdd5883a",
        "value": "0x0",
        "input": "0x137c3f6900000000000000000000000012ccf0f4a22454d53abda56a796a08e93e947256",
        "nonce": "0x17",
        "chainId": "0x138b"
      },
      "additionalContracts": [],
      "isFixedGasLimit": false
    },
    {
      "hash": "0x73903a6d779dec031f95ace66312bde856130107dff2db6e44b17898f7d7714e",
      "transactionType": "CALL",
      "contractName": null,
      "contractAddress": "0x76b27dfb0408baa19b3f41469b123c5bbfd56047",
      "function": "setCDOPoolFactory(address)",
      "arguments": [
        "0xBc61e19874B98D2429fABc645635439dBaA0Adde"
      ],
      "transaction": {
        "from": "0x7fbbe68068a3aa7e479a1e51e792f4c2073b018f",
        "to": "0x76b27dfb0408baa19b3f41469b123c5bbfd56047",
        "gas": "0x83e6e54",
        "value": "0x0",
        "input": "0x154466c8000000000000000000000000bc61e19874b98d2429fabc645635439dbaa0adde",
        "nonce": "0x18",
        "chainId": "0x138b"
      },
      "additionalContracts": [],
      "isFixedGasLimit": false
    },
    {
      "hash": "0x260127f6ca68944f7164725609832a3d7e6b874d4486c97d07940821a27f5169",
      "transactionType": "CALL",
      "contractName": null,
      "contractAddress": "0x76b27dfb0408baa19b3f41469b123c5bbfd56047",
      "function": "setDefaultPool(uint256)",
      "arguments": [
        "0"
      ],
      "transaction": {
        "from": "0x7fbbe68068a3aa7e479a1e51e792f4c2073b018f",
        "to": "0x76b27dfb0408baa19b3f41469b123c5bbfd56047",
        "gas": "0xaa033a6",
        "value": "0x0",
        "input": "0x8dda41a90000000000000000000000000000000000000000000000000000000000000000",
        "nonce": "0x19",
        "chainId": "0x138b"
      },
      "additionalContracts": [],
      "isFixedGasLimit": false
    },
    {
      "hash": "0x5f5436efd6fbbbf2b06aead2f4505f7333337c45bd0a3d3f8615774f39914421",
      "transactionType": "CALL",
      "contractName": null,
      "contractAddress": "0x76b27dfb0408baa19b3f41469b123c5bbfd56047",
      "function": "setRiskValidator(address)",
      "arguments": [
        "0x4d0884D03f2fA409370D0F97c6AbC4dA4A8F03d6"
      ],
      "transaction": {
        "from": "0x7fbbe68068a3aa7e479a1e51e792f4c2073b018f",
        "to": "0x76b27dfb0408baa19b3f41469b123c5bbfd56047",
        "gas": "0xde299f7",
        "value": "0x0",
        "input": "0x48a8a2020000000000000000000000004d0884d03f2fa409370d0f97c6abc4da4a8f03d6",
        "nonce": "0x1a",
        "chainId": "0x138b"
      },
      "additionalContracts": [],
      "isFixedGasLimit": false
    }
  ],
  "receipts": [
    {
      "status": "0x1",
      "cumulativeGasUsed": "0x8cd338d",
      "logs": [
        {
          "address": "0x76b27dfb0408baa19b3f41469b123c5bbfd56047",
          "topics": [
            "0x43368b97b561622ef2437f4a04c73acab0aab7062435442704c2c7f030db2157"
          ],
          "data": "0x000000000000000000000000000000000000000000000000000000000000000000000000000000000000000012ccf0f4a22454d53abda56a796a08e93e94725600000000000000000000000000000000000000000000000000000000695fd58d",
          "blockHash": "0x76623c879586304fd906e7a57acbcec7271807f531a850e43b169bf672b3507a",
          "blockNumber": "0x1fa2956",
          "blockTimestamp": "0x695fd58d",
          "transactionHash": "0xe3e52519018c495c8ec095e58eee1c8721c102976666395f3ecd61f2806d8394",
          "transactionIndex": "0x1",
          "logIndex": "0x0",
          "removed": false
        }
      ],
      "logsBloom": "0x00000000000000000000000000000000000000000000000000000000000000000000000000010000000000000000000000000000000000000000000000000000000000000040000000000000000000000000000000000000000000000000000000000000000480000000000400000000000000000000000000000000000000000000000000000000000000000000000000000000000000000000000000000000000000000000000000000000000000000000020000000000000000000000000000000000000000000000000000000000000000000000000000000000000000000000000000000000000000000000000000000000000000000000000000000000",
      "type": "0x0",
      "transactionHash": "0xe3e52519018c495c8ec095e58eee1c8721c102976666395f3ecd61f2806d8394",
      "transactionIndex": "0x1",
      "blockHash": "0x76623c879586304fd906e7a57acbcec7271807f531a850e43b169bf672b3507a",
      "blockNumber": "0x1fa2956",
      "gasUsed": "0x8cc5bac",
      "effectiveGasPrice": "0x132b3a0",
      "from": "0x7fbbe68068a3aa7e479a1e51e792f4c2073b018f",
      "to": "0x76b27dfb0408baa19b3f41469b123c5bbfd56047",
      "contractAddress": null,
      "l1Fee": "0x1556a128c64",
      "l1FeeScalar": "0.01",
      "l1GasPrice": "0x13a5224",
      "l1GasUsed": "0x8fc",
      "tokenRatio": "0xc17"
    },
    {
      "status": "0x1",
      "cumulativeGasUsed": "0x1c6e9a9f",
      "logs": [],
      "logsBloom": "0x00000000000000000000000000000000000000000000000000000000000000000000000000000000000000000000000000000000000000000000000000000000000000000000000000000000000000000000000000000000000000000000000000000000000000000000000000000000000000000000000000000000000000000000000000000000000000000000000000000000000000000000000000000000000000000000000000000000000000000000000000000000000000000000000000000000000000000000000000000000000000000000000000000000000000000000000000000000000000000000000000000000000000000000000000000000",
      "type": "0x0",
      "transactionHash": "0x73903a6d779dec031f95ace66312bde856130107dff2db6e44b17898f7d7714e",
      "transactionIndex": "0x2",
      "blockHash": "0xf386dbdf9a92bc8868ad4101f5f290006b82989a0057fef94e12a6bc87d3dc5a",
      "blockNumber": "0x1fa295a",
      "gasUsed": "0x4d32dbd",
      "effectiveGasPrice": "0x132b3a0",
      "from": "0x7fbbe68068a3aa7e479a1e51e792f4c2073b018f",
      "to": "0x76b27dfb0408baa19b3f41469b123c5bbfd56047",
      "contractAddress": null,
      "l1Fee": "0x1556a128c64",
      "l1FeeScalar": "0.01",
      "l1GasPrice": "0x13a5224",
      "l1GasUsed": "0x8fc",
      "tokenRatio": "0xc17"
    },
    {
      "status": "0x1",
      "cumulativeGasUsed": "0xd38eeb8",
      "logs": [],
      "logsBloom": "0x00000000000000000000000000000000000000000000000000000000000000000000000000000000000000000000000000000000000000000000000000000000000000000000000000000000000000000000000000000000000000000000000000000000000000000000000000000000000000000000000000000000000000000000000000000000000000000000000000000000000000000000000000000000000000000000000000000000000000000000000000000000000000000000000000000000000000000000000000000000000000000000000000000000000000000000000000000000000000000000000000000000000000000000000000000000",
      "type": "0x0",
      "transactionHash": "0x260127f6ca68944f7164725609832a3d7e6b874d4486c97d07940821a27f5169",
      "transactionIndex": "0x2",
      "blockHash": "0x80ec54767393a704cb43390f8cd809c050d5ca5cd2b8e5c07618772cc37e5cef",
      "blockNumber": "0x1fa295f",
      "gasUsed": "0x5e15e86",
      "effectiveGasPrice": "0x132b3a0",
      "from": "0x7fbbe68068a3aa7e479a1e51e792f4c2073b018f",
      "to": "0x76b27dfb0408baa19b3f41469b123c5bbfd56047",
      "contractAddress": null,
      "l1Fee": "0x116cbdb2851",
      "l1FeeScalar": "0.01",
      "l1GasPrice": "0x11e9355",
      "l1GasUsed": "0x80c",
      "tokenRatio": "0xc17"
    },
    {
      "status": "0x1",
      "cumulativeGasUsed": "0x8d5665e",
      "logs": [
        {
          "address": "0x76b27dfb0408baa19b3f41469b123c5bbfd56047",
          "topics": [
            "0xabfdeafdb263b47f34b19d1017f281e05ca53d7eb6ccdd5c05888fe2182a5a7a"
          ],
          "data": "0x00000000000000000000000000000000000000000000000000000000000000000000000000000000000000004d0884d03f2fa409370d0f97c6abc4da4a8f03d600000000000000000000000000000000000000000000000000000000695fd5ad",
          "blockHash": "0x99f80223557cce295fd69098dc47cf3df308d8dd3191bab0154a19c94ecbf0e0",
          "blockNumber": "0x1fa2966",
          "blockTimestamp": "0x695fd5ad",
          "transactionHash": "0x5f5436efd6fbbbf2b06aead2f4505f7333337c45bd0a3d3f8615774f39914421",
          "transactionIndex": "0x1",
          "logIndex": "0x0",
          "removed": false
        }
      ],
      "logsBloom": "0x00000000000000000000000000000000000000000000000000000000000000000000000000000000000000000000000000000000000000000000000000000000000000000040000000000000000000000000000000000000000004000000000000000000000080000000000400000000000000000000000000000000000000000000000000000000000000000000000000000000000000000000000000000000000000000000000000000000000000000000000000000000000002000000000000000000000000000000000000000000000000000000000000000000000000000010000000000000000000000000000000000000000000000000000000000000",
      "type": "0x0",
      "transactionHash": "0x5f5436efd6fbbbf2b06aead2f4505f7333337c45bd0a3d3f8615774f39914421",
      "transactionIndex": "0x1",
      "blockHash": "0x99f80223557cce295fd69098dc47cf3df308d8dd3191bab0154a19c94ecbf0e0",
      "blockNumber": "0x1fa2966",
      "gasUsed": "0x8d4af41",
      "effectiveGasPrice": "0x132b3a0",
      "from": "0x7fbbe68068a3aa7e479a1e51e792f4c2073b018f",
      "to": "0x76b27dfb0408baa19b3f41469b123c5bbfd56047",
      "contractAddress": null,
      "l1Fee": "0x1590b2fc5e6",
      "l1FeeScalar": "0.01",
      "l1GasPrice": "0x13da986",
      "l1GasUsed": "0x8fc",
      "tokenRatio": "0xc17"
    }
  ],
  "libraries": [],
  "pending": [],
  "returns": {},
  "timestamp": 1767888305756,
  "chain": 5003,
  "commit": "ff39dda"
}